:020000040800F2
:1000000088060020CD010008430400082F030008E3
:10001000410400087F02000891070008000000006A
:10002000000000000000000000000000DD040008E7
:100030008102000800000000A904000889050008EA
:10004000E7010008E7010008E7010008E7010008F0
:10005000E7010008E7010008E7010008E7010008E0
:10006000E7010008E7010008E7010008E7010008D0
:10007000E7010008E7010008E7010008E7010008C0
:10008000E7010008E7010008E7010008E7010008B0
:10009000E7010008E7010008E70100088302000803
:1000A000E7010008E7010008E7010008E701000890
:1000B000CD050008E7010008E7010008E701000896
:1000C000E7010008E7010008E7010008E701000870
:1000D000E7010008E7010008E7010008E701000860
:1000E000E7010008E7010008E7010008E701000850
:1000F000E7010008E7010008E7010008E701000840
:10010000E7010008E7010008E7010008E70100082F
:10011000E7010008E7010008E7010008E70100081F
:10012000E7010008E7010008E7010008E70100080F
:1001300000F002F800F03AF80AA090E8000C8244BF
:100140008344AAF10107DA4501D100F02FF8AFF29C
:10015000090EBAE80F0013F0010F18BFFB1A43F0A5
:10016000010318479C070000BC070000103A24BF99
:1001700078C878C1FAD8520724BF30C830C144BF0C
:1001800004680C607047000000230024002500264E
:10019000103A28BF78C1FBD8520728BF30C148BFEA
:1001A0000B6070471FB51FBD10B510BD00F031F8D2
:1001B0001146FFF7F7FF00F0EDFA00F04FF803B437
:1001C000FFF7F2FF03BC00F053F800000948804736
:1001D00009480047FEE7FEE7FEE7FEE7FEE7FEE729
:1001E000FEE7FEE7FEE7FEE704480549054A064B41
:1001F000704700008D0500083101000888000020CC
:10020000880600208802002088020020704770477E
:100210007047754600F028F8AE460500694653461B
:1002200020F00700854618B020B5FFF7DDFFBDE8D8
:1002300020404FF000064FF000074FF000084FF04D
:10024000000B21F00701AC46ACE8C009ACE8C009DE
:10025000ACE8C009ACE8C0098D4670470446AFF36E
:1002600000802046FFF7ABFF0048704724000020C5
:1002700001491820ABBEFEE7260002007047FEE7EA
:1002800070477047F0B5CC78002204F00F03E40605
:1002900001D58C7823430C784FF00F0C14F0FF0F2E
:1002A0004FF0010E1BD005680E880EFA02F42640AE
:1002B000A64210D196000CFA06F725EA070703FAC2
:1002C00006F5CE783D43282E02D0482E02D002E01B
:1002D000446100E00461521C082AE5D305600A88E5
:1002E000FF2A1CD94468002202F108060EFA06F51E
:1002F0000E882E40AE420ED196000CFA06F7BC4393
:1003000003FA06F7CE783C43282E00D14561CE781B
:10031000482E00D10561521C082AE5D34460F0BD87
:10032000806880B270474161704701617047FEE7A5
:100330002DE9F84F0121042000F0C4F80121082024
:1003400000F0C0F80121102000F0BCF801212020AD
:1003500000F0B8F80121402000F0B4F8012180201D
:1003600000F0B0F80121080200F0ACF84FF6FF757C
:10037000ADF8005048208DF803002A4E03248DF874
:10038000024069463046FFF77DFF274F69463846F1
:10039000FFF778FFDFF8948069464046FFF772FF69
:1003A000DFF88C9069464846FFF76CFFDFF884A0C1
:1003B00069465046FFF766FFDFF87CB0694658464D
:1003C000FFF760FF69461D48FFF75CFF4FF40040F0
:1003D000ADF8000010208DF803008DF8024069464A
:1003E0001648FFF74FFF29463046FFF79EFF294684
:1003F0003846FFF79AFF29464046FFF796FF294601
:100400004846FFF792FF29465046FFF78EFF2946E0
:100410005846FFF78AFF29460848FFF786FFBDE8E0
:10042000F88F000000080140000C0140001001405E
:100430000014014000180140001C01400020014050
:10044000FEE7704730B50F23C27801780125F2B17D
:10045000144A126801F1E02102F4E062C2F5E062A0
:10046000120AC2F10404D3404278A24084781C40AE
:100470001443220181F80024007800F01F018D4010
:100480004009800000F1E020C0F8005130BD01F0CB
:100490001F0085404809800000F1E020C0F880512D
:1004A00030BD00000CED00E070470000044A002958
:1004B000D16901D0014300E08143D1617047000060
:1004C00000100240044A0029916901D0014300E074
:1004D00081439161704700000010024070470000A6
:1004E0000CB50022264800920192016841F4803147
:1004F00001604FF4A063016801F40031019100999B
:10050000491C0091019911B900999942F3D10168F0
:10051000890333D5012101911A490A6842F010027A
:100520000A600A6822F003020A600A6842F00202C6
:100530000A604168416041684160416841F48061FE
:100540004160416821F47C114160416841F4E81147
:100550004160016841F08071016001688901FCD54A
:10056000416821F003014160416841F002014160AE
:100570004168C1F381010229FAD10CBD01920CBD81
:100580000010024000200240704700000C48016843
:1005900041F00101016041680A4A1140416001686F
:1005A000094A11400160016821F48021016041681D
:1005B00021F4FE0141604FF41F018160FFF790BFFD
:1005C000001002400000FFF8FFFFF6FE2DE9F041A9
:1005D00001218C07204600F079F800282DD0012158
:1005E000204600F066F8164C2068401C20600A285F
:1005F00023D31448002525600168491C0160124F6F
:10060000124E4FF40048386818B941463046FFF79B
:100610008AFE3868012803D141463046FFF785FE3F
:100620003868022809D16168491C6160322904DBFD
:100630006560F06880F40040F060BDE8F081000083
:100640001C000020100000201400002000200140A9
:100650007FB501210846FFF729FF6320ADF80400AC
:100660004720ADF8000000244FF08045ADF806406B
:10067000ADF802406946284600F03CF801212846C2
:1006800000F017F801221146284600F02BF801214E
:10069000284600F011F81C208DF80C008DF80D4054
:1006A00001208DF80E008DF80F0003A8FFF7CAFE99
:1006B0007FBDC943018270470029018802D041F003
:1006C000010101E021F00101018070470246002094
:1006D000138A92890B4202EA010202D0002A00D05A
:1006E00001207047002A828901D00A4300E08A4332
:1006F0008281704730B502881B4C1C4DA0420DD042
:10070000A8420BD0B0F1804F08D0194B984205D0C9
:10071000184B984202D0184B984203D122F0700334
:100720004A881A43154B984206D0154B984203D07D
:1007300022F44073CA881A4302808A8882850A8814
:100740000285A0420AD0A84208D00E4A904205D0A5
:100750000D4A904202D00D4A904201D1097A018699
:100760000121818230BD0000002C01400034014095
:100770000004004000080040000C00400010004051
:100780000014004000400140004401400048014086
:10079000FEE70000FFF75CFFFFF7CAFDDFF84091BE
:1007A00001220021C9E90412D9F81000C828FBD39E
:1007B000C9F81010C9F81410D9F81000C828FBD3D4
:1007C000C9F81010C9F81420D9F81000C828FBD3B4
:1007D000C9F81010C9F81410C9F81010D9F8100091
:1007E000C828FBD3C9E90412D9F81000C828FBD3E4
:1007F000C9F810108B46C9F814104C463948C9F88E
:1008000018B0FFF78DFD20803748FFF789FD608025
:100810003648FFF785FDA0803548FFF781FDE08071
:100820003448FFF77DFD20813348FFF779FD608173
:100830003248FFF775FD40F40040A08182462088D1
:10084000002140F46043238060884FF0010E40F0A7
:100850001808A4F80280B4F804C0E78826896589DE
:100860000EFA01F0184202D1A269521CA26110EAEC
:10087000080F02D1A269521CA26110EA0C0F02D12A
:10088000A269521CA261384202D1A269521CA26123
:10089000304202D1A269521CA261284202D1A2694F
:1008A000521CA26110EA0A0F02D1A069401CA0618B
:1008B000491C1029D4DBA06960B101280DD09CDD52
:1008C0004FF00200C4E904B04FF4FA712069884285
:1008D000FCD392E7C4F814B08FE7C4F814E08CE7B7
:1008E0000000002000080140000C01400010014001
:1008F0000014014000180140001C0140002001408C
:100900002009000800000020240000006C010008FD
:100910004409000824000020640600008801000843
:1009200000000000000000000000000000000000C7
:1009300000000000000000000000000000000000B7
:0409400000000000B3
:0400000508000131BD
:00000001FF
