:020000040800F2
:1000000068060020CD010008D3030008290300087A
:10001000D10300087F020008D90600080000000094
:100020000000000000000000000000006D04000857
:1000300081020008000000003904000819050008CA
:10004000E7010008E7010008E7010008E7010008F0
:10005000E7010008E7010008E7010008E7010008E0
:10006000E7010008E7010008E7010008E7010008D0
:10007000E7010008E7010008E7010008E7010008C0
:10008000E7010008E7010008E7010008E7010008B0
:10009000E7010008E7010008E70100088302000803
:1000A000E7010008E7010008E7010008E701000890
:1000B0005D050008E7010008E7010008E701000806
:1000C000E7010008E7010008E7010008E701000870
:1000D000E7010008E7010008E7010008E701000860
:1000E000E7010008E7010008E7010008E701000850
:1000F000E7010008E7010008E7010008E701000840
:10010000E7010008E7010008E7010008E70100082F
:10011000E7010008E7010008E7010008E70100081F
:10012000E7010008E7010008E7010008E70100080F
:1001300000F002F800F03AF80AA090E8000C8244BF
:100140008344AAF10107DA4501D100F02FF8AFF29C
:10015000090EBAE80F0013F0010F18BFFB1A43F0A5
:1001600001031847D0060000F0060000103A24BF33
:1001700078C878C1FAD8520724BF30C830C144BF0C
:1001800004680C607047000000230024002500264E
:10019000103A28BF78C1FBD8520728BF30C148BFEA
:1001A0000B6070471FB51FBD10B510BD00F031F8D2
:1001B0001146FFF7F7FF00F091FA00F04FF803B493
:1001C000FFF7F2FF03BC00F053F800000948804736
:1001D00009480047FEE7FEE7FEE7FEE7FEE7FEE729
:1001E000FEE7FEE7FEE7FEE704480549054A064B41
:1001F000704700001D05000831010008680000205C
:1002000068060020680200206802002070477047DE
:100210007047754600F028F8AE460500694653461B
:1002200020F00700854618B020B5FFF7DDFFBDE8D8
:1002300020404FF000064FF000074FF000084FF04D
:10024000000B21F00701AC46ACE8C009ACE8C009DE
:10025000ACE8C009ACE8C0098D4670470446AFF36E
:1002600000802046FFF7ABFF0048704708000020E1
:1002700001491820ABBEFEE7260002007047FEE7EA
:1002800070477047F0B5CC78002204F00F03E40605
:1002900001D58C7823430C784FF00F0C14F0FF0F2E
:1002A0004FF0010E1BD005680E880EFA02F42640AE
:1002B000A64210D196000CFA06F725EA070703FAC2
:1002C00006F5CE783D43282E02D0482E02D002E01B
:1002D000446100E00461521C082AE5D305600A88E5
:1002E000FF2A1CD94468002202F108060EFA06F51E
:1002F0000E882E40AE420ED196000CFA06F7BC4393
:1003000003FA06F7CE783C43282E00D14561CE781B
:10031000482E00D10561521C082AE5D34460F0BD87
:100320004161704701617047FEE7000008B5012197
:10033000042000F08FF80121082000F08BF8012143
:10034000102000F087F80121202000F083F801211F
:10035000402000F07FF80121802000F07BF801218F
:10036000080200F077F84FF6FF70ADF8000010209B
:100370008DF8030003208DF8020069460D48FFF751
:1003800081FF69460C48FFF77DFF69460B48FFF780
:1003900079FF69460A48FFF775FF69460948FFF784
:1003A00071FF69460848FFF76DFF69460748FFF788
:1003B00069FF08BD00080140000C01400010014029
:1003C0000014014000180140001C014000200140C1
:1003D000FEE7704730B50F23C27801780125F2B1EE
:1003E000144A126801F1E02102F4E062C2F5E06211
:1003F000120AC2F10404D3404278A24084781C401F
:100400001443220181F80024007800F01F018D4080
:100410004009800000F1E020C0F8005130BD01F03B
:100420001F0085404809800000F1E020C0F880519D
:1004300030BD00000CED00E070470000044A0029C8
:10044000D16901D0014300E08143D16170470000D0
:1004500000100240044A0029916901D0014300E0E4
:100460008143916170470000001002407047000016
:100470000CB50022264800920192016841F48031B7
:1004800001604FF4A063016801F40031019100990B
:10049000491C0091019911B900999942F3D1016861
:1004A000890333D5012101911A490A6842F01002EB
:1004B0000A600A6822F003020A600A6842F0020237
:1004C0000A604168416041684160416841F480616F
:1004D0004160416821F47C114160416841F4E811B8
:1004E0004160016841F08071016001688901FCD5BB
:1004F000416821F003014160416841F0020141601F
:100500004168C1F381010229FAD10CBD01920CBDF1
:100510000010024000200240704700000C480168B3
:1005200041F00101016041680A4A114041600168DF
:10053000094A11400160016821F48021016041688D
:1005400021F4FE0141604FF41F018160FFF790BF6D
:10055000001002400000FFF8FFFFF6FE10B5012179
:100560008C07204600F056F800280FD001212046C5
:1005700000F043F806490868401C08600A2805D3C3
:100580000020086003480168491C016010BD00009C
:1005900004000020000000207FB501210846FFF77D
:1005A0004DFF6320ADF804004720ADF800000024A3
:1005B0004FF08045ADF80640ADF802406946284648
:1005C00000F03CF80121284600F017F801221146FE
:1005D000284600F02BF80121284600F011F81C20D5
:1005E0008DF80C008DF80D4001208DF80E008DF86F
:1005F0000F0003A8FFF7EEFE7FBDC94301827047DD
:100600000029018802D041F0010101E021F001013F
:100610000180704702460020138A92890B4202EA49
:10062000010202D0002A00D001207047002A8289EE
:1006300001D00A4300E08A438281704730B50288C6
:100640001B4C1C4DA0420DD0A8420BD0B0F1804FE6
:1006500008D0194B984205D0184B984202D0184B3D
:10066000984203D122F070034A881A43154B9842EE
:1006700006D0154B984203D022F44073CA881A431F
:1006800002808A8882850A880285A0420AD0A84210
:1006900008D00E4A904205D00D4A904202D00D4A31
:1006A000904201D1097A01860121818230BD00008A
:1006B000002C0140003401400004004000080040CC
:1006C000000C0040001000400014004000400140B9
:1006D0000044014000480140FEE700000024FFF70D
:1006E0005BFFFFF723FEDFF82CB14B4D4B48016851
:1006F0000529FBD300210160F4B300244AF6AA26A1
:100700003146D4B3DFF818814046FFF709FE314681
:100710004448FFF705FEDFF8109131464846FFF7E1
:10072000FFFD31465846FFF7FBFD31462846FFF7EF
:10073000F7FDDFF8F8A031465046FFF7F1FD3146EE
:100740003B4E3046FFF7ECFD45F2555739464046E3
:10075000FFF7E8FD39463348FFF7E4FD39464846E0
:10076000FFF7E0FD39465846FFF7DCFD39462846DD
:10077000FFF7D8FD394601E008E009E05046FFF7F1
:10078000D1FD39463046FFF7CDFDAFE70124B5E78F
:10079000DFF88C904846FFF7C5FDDFF888A03146AA
:1007A0005046FFF7BFFD31461F48FFF7BBFD3146FE
:1007B0005846FFF7B7FD31462846FFF7B3FD1B4FFC
:1007C00031463846FFF7AEFDDFF8648031464046DB
:1007D000FFF7A8FD45F2555631464846FFF7A0FD04
:1007E00031465046FFF79CFD31460F48FFF798FD14
:1007F00031465846FFF794FD31462846FFF790FDF5
:1008000031463846FFF78CFD31464046FFF788FDFC
:100810006CE70000001401400018014000000020B7
:1008200000080140000C014000100140001C014084
:1008300000200140540800080000002008000000CB
:100840006C0100085C080008080000206006000039
:0C0850008801000800000000000000000B
:0400000508000131BD
:00000001FF
